{
  "contractName": "TokenFarm",
  "abi": [
    {
      "inputs": [
        {
          "internalType": "contract LP0Token",
          "name": "_lp0Token",
          "type": "address"
        },
        {
          "internalType": "contract LP1Token",
          "name": "_lp1Token",
          "type": "address"
        },
        {
          "internalType": "contract LP2Token",
          "name": "_lp2Token",
          "type": "address"
        },
        {
          "internalType": "contract CropToken",
          "name": "_cropToken",
          "type": "address"
        }
      ],
      "payable": false,
      "stateMutability": "nonpayable",
      "type": "constructor"
    },
    {
      "constant": true,
      "inputs": [
        {
          "internalType": "uint256",
          "name": "",
          "type": "uint256"
        }
      ],
      "name": "allStakeholders",
      "outputs": [
        {
          "internalType": "address",
          "name": "",
          "type": "address"
        }
      ],
      "payable": false,
      "stateMutability": "view",
      "type": "function"
    },
    {
      "constant": true,
      "inputs": [],
      "name": "cropToken",
      "outputs": [
        {
          "internalType": "contract CropToken",
          "name": "",
          "type": "address"
        }
      ],
      "payable": false,
      "stateMutability": "view",
      "type": "function"
    },
    {
      "constant": true,
      "inputs": [],
      "name": "lp0Share",
      "outputs": [
        {
          "internalType": "uint256",
          "name": "",
          "type": "uint256"
        }
      ],
      "payable": false,
      "stateMutability": "view",
      "type": "function"
    },
    {
      "constant": true,
      "inputs": [],
      "name": "lp0Token",
      "outputs": [
        {
          "internalType": "contract LP0Token",
          "name": "",
          "type": "address"
        }
      ],
      "payable": false,
      "stateMutability": "view",
      "type": "function"
    },
    {
      "constant": true,
      "inputs": [],
      "name": "lp1Share",
      "outputs": [
        {
          "internalType": "uint256",
          "name": "",
          "type": "uint256"
        }
      ],
      "payable": false,
      "stateMutability": "view",
      "type": "function"
    },
    {
      "constant": true,
      "inputs": [],
      "name": "lp1Token",
      "outputs": [
        {
          "internalType": "contract LP1Token",
          "name": "",
          "type": "address"
        }
      ],
      "payable": false,
      "stateMutability": "view",
      "type": "function"
    },
    {
      "constant": true,
      "inputs": [],
      "name": "lp2Share",
      "outputs": [
        {
          "internalType": "uint256",
          "name": "",
          "type": "uint256"
        }
      ],
      "payable": false,
      "stateMutability": "view",
      "type": "function"
    },
    {
      "constant": true,
      "inputs": [],
      "name": "lp2Token",
      "outputs": [
        {
          "internalType": "contract LP2Token",
          "name": "",
          "type": "address"
        }
      ],
      "payable": false,
      "stateMutability": "view",
      "type": "function"
    },
    {
      "constant": true,
      "inputs": [],
      "name": "name",
      "outputs": [
        {
          "internalType": "string",
          "name": "",
          "type": "string"
        }
      ],
      "payable": false,
      "stateMutability": "view",
      "type": "function"
    },
    {
      "constant": true,
      "inputs": [],
      "name": "owner",
      "outputs": [
        {
          "internalType": "address",
          "name": "",
          "type": "address"
        }
      ],
      "payable": false,
      "stateMutability": "view",
      "type": "function"
    },
    {
      "constant": true,
      "inputs": [],
      "name": "pool",
      "outputs": [
        {
          "internalType": "uint256",
          "name": "lastBlock",
          "type": "uint256"
        },
        {
          "internalType": "uint256",
          "name": "lp0Total",
          "type": "uint256"
        },
        {
          "internalType": "uint256",
          "name": "lp1Total",
          "type": "uint256"
        },
        {
          "internalType": "uint256",
          "name": "lp2Total",
          "type": "uint256"
        }
      ],
      "payable": false,
      "stateMutability": "view",
      "type": "function"
    },
    {
      "constant": true,
      "inputs": [],
      "name": "rewardQuantity",
      "outputs": [
        {
          "internalType": "uint256",
          "name": "",
          "type": "uint256"
        }
      ],
      "payable": false,
      "stateMutability": "view",
      "type": "function"
    },
    {
      "constant": true,
      "inputs": [
        {
          "internalType": "address",
          "name": "",
          "type": "address"
        }
      ],
      "name": "stakeholders",
      "outputs": [
        {
          "internalType": "uint256",
          "name": "lp0Count",
          "type": "uint256"
        },
        {
          "internalType": "uint256",
          "name": "lp1Count",
          "type": "uint256"
        },
        {
          "internalType": "uint256",
          "name": "lp2Count",
          "type": "uint256"
        },
        {
          "internalType": "uint256",
          "name": "cropCount",
          "type": "uint256"
        },
        {
          "internalType": "bool",
          "name": "isStaking",
          "type": "bool"
        },
        {
          "internalType": "bool",
          "name": "isOnboarded",
          "type": "bool"
        }
      ],
      "payable": false,
      "stateMutability": "view",
      "type": "function"
    },
    {
      "constant": false,
      "inputs": [],
      "name": "addStakeholder",
      "outputs": [],
      "payable": false,
      "stateMutability": "nonpayable",
      "type": "function"
    },
    {
      "constant": false,
      "inputs": [
        {
          "internalType": "uint256",
          "name": "_quantity",
          "type": "uint256"
        }
      ],
      "name": "stakeLP0",
      "outputs": [],
      "payable": false,
      "stateMutability": "nonpayable",
      "type": "function"
    },
    {
      "constant": false,
      "inputs": [
        {
          "internalType": "uint256",
          "name": "_quantity",
          "type": "uint256"
        }
      ],
      "name": "stakeLP1",
      "outputs": [],
      "payable": false,
      "stateMutability": "nonpayable",
      "type": "function"
    },
    {
      "constant": false,
      "inputs": [
        {
          "internalType": "uint256",
          "name": "_quantity",
          "type": "uint256"
        }
      ],
      "name": "stakeLP2",
      "outputs": [],
      "payable": false,
      "stateMutability": "nonpayable",
      "type": "function"
    },
    {
      "constant": false,
      "inputs": [
        {
          "internalType": "uint256",
          "name": "_quantity",
          "type": "uint256"
        }
      ],
      "name": "withdrawLP0",
      "outputs": [],
      "payable": false,
      "stateMutability": "nonpayable",
      "type": "function"
    },
    {
      "constant": false,
      "inputs": [
        {
          "internalType": "uint256",
          "name": "_quantity",
          "type": "uint256"
        }
      ],
      "name": "withdrawLP1",
      "outputs": [],
      "payable": false,
      "stateMutability": "nonpayable",
      "type": "function"
    },
    {
      "constant": false,
      "inputs": [
        {
          "internalType": "uint256",
          "name": "_quantity",
          "type": "uint256"
        }
      ],
      "name": "withdrawLP2",
      "outputs": [],
      "payable": false,
      "stateMutability": "nonpayable",
      "type": "function"
    },
    {
      "constant": false,
      "inputs": [],
      "name": "issueCROP",
      "outputs": [],
      "payable": false,
      "stateMutability": "nonpayable",
      "type": "function"
    },
    {
      "constant": false,
      "inputs": [
        {
          "internalType": "uint256",
          "name": "_quantity",
          "type": "uint256"
        }
      ],
      "name": "harvestCROP",
      "outputs": [],
      "payable": false,
      "stateMutability": "nonpayable",
      "type": "function"
    },
    {
      "constant": false,
      "inputs": [
        {
          "internalType": "uint256",
          "name": "_id",
          "type": "uint256"
        },
        {
          "internalType": "uint256",
          "name": "_quantity",
          "type": "uint256"
        }
      ],
      "name": "buyLP",
      "outputs": [],
      "payable": false,
      "stateMutability": "nonpayable",
      "type": "function"
    }
  ],
  "bytecode": "0x60806040526040518060400160405280600a81526020017f546f6b656e204661726d00000000000000000000000000000000000000000000815250600190805190602001906200005192919062000279565b506032600655601e6007556014600855680ad78ebc5ac620000060095560405180608001604052806000815260200160008152602001600081526020016000815250600a600082015181600001556020820151816001015560408201518160020155606082015181600301555050348015620000cc57600080fd5b5060405162002b7038038062002b7083398181016040526080811015620000f257600080fd5b810190808051906020019092919080519060200190929190805190602001909291908051906020019092919050505083600260006101000a81548173ffffffffffffffffffffffffffffffffffffffff021916908373ffffffffffffffffffffffffffffffffffffffff16021790555082600360006101000a81548173ffffffffffffffffffffffffffffffffffffffff021916908373ffffffffffffffffffffffffffffffffffffffff16021790555081600460006101000a81548173ffffffffffffffffffffffffffffffffffffffff021916908373ffffffffffffffffffffffffffffffffffffffff16021790555080600560006101000a81548173ffffffffffffffffffffffffffffffffffffffff021916908373ffffffffffffffffffffffffffffffffffffffff160217905550336000806101000a81548173ffffffffffffffffffffffffffffffffffffffff021916908373ffffffffffffffffffffffffffffffffffffffff16021790555043600a600001819055505050505062000328565b828054600181600116156101000203166002900490600052602060002090601f016020900481019282601f10620002bc57805160ff1916838001178555620002ed565b82800160010185558215620002ed579182015b82811115620002ec578251825591602001919060010190620002cf565b5b509050620002fc919062000300565b5090565b6200032591905b808211156200032157600081600090555060010162000307565b5090565b90565b61283880620003386000396000f3fe608060405234801561001057600080fd5b506004361061014d5760003560e01c8063918998dd116100c3578063d33ef54c1161007c578063d33ef54c14610507578063d352683114610535578063dec7d63d1461056d578063dfe9a658146105b7578063f14f57a3146105e5578063fc2bcabe146106035761014d565b8063918998dd1461039a578063a0e3456b146103b8578063ba69154f14610402578063c07cfca91461040c578063d02473821461048f578063d33ec635146104bd5761014d565b80634ebbb20d116101155780634ebbb20d1461025e57806358ee744d1461028c5780636302ad7f146102aa5780637df20349146102f4578063892f4b04146103225780638da5cb5b146103505761014d565b806306fdde03146101525780630cd0d60a146101d557806316f0115b146101f357806318d53f20146102265780634b1e3c9e14610230575b600080fd5b61015a610671565b6040518080602001828103825283818151815260200191508051906020019080838360005b8381101561019a57808201518184015260208101905061017f565b50505050905090810190601f1680156101c75780820380516001836020036101000a031916815260200191505b509250505060405180910390f35b6101dd61070f565b6040518082815260200191505060405180910390f35b6101fb610715565b6040518085815260200184815260200183815260200182815260200194505050505060405180910390f35b61022e610733565b005b61025c6004803603602081101561024657600080fd5b81019080803590602001909291905050506108dd565b005b61028a6004803603602081101561027457600080fd5b8101908080359060200190929190505050610ce2565b005b6102946110e7565b6040518082815260200191505060405180910390f35b6102b26110ed565b604051808273ffffffffffffffffffffffffffffffffffffffff1673ffffffffffffffffffffffffffffffffffffffff16815260200191505060405180910390f35b6103206004803603602081101561030a57600080fd5b8101908080359060200190929190505050611113565b005b61034e6004803603602081101561033857600080fd5b8101908080359060200190929190505050611401565b005b6103586115f1565b604051808273ffffffffffffffffffffffffffffffffffffffff1673ffffffffffffffffffffffffffffffffffffffff16815260200191505060405180910390f35b6103a2611616565b6040518082815260200191505060405180910390f35b6103c061161c565b604051808273ffffffffffffffffffffffffffffffffffffffff1673ffffffffffffffffffffffffffffffffffffffff16815260200191505060405180910390f35b61040a611642565b005b61044e6004803603602081101561042257600080fd5b81019080803573ffffffffffffffffffffffffffffffffffffffff169060200190929190505050611a29565b604051808781526020018681526020018581526020018481526020018315151515815260200182151515158152602001965050505050505060405180910390f35b6104bb600480360360208110156104a557600080fd5b8101908080359060200190929190505050611a7f565b005b6104c5611e84565b604051808273ffffffffffffffffffffffffffffffffffffffff1673ffffffffffffffffffffffffffffffffffffffff16815260200191505060405180910390f35b6105336004803603602081101561051d57600080fd5b8101908080359060200190929190505050611eaa565b005b61056b6004803603604081101561054b57600080fd5b810190808035906020019092919080359060200190929190505050612198565b005b610575612473565b604051808273ffffffffffffffffffffffffffffffffffffffff1673ffffffffffffffffffffffffffffffffffffffff16815260200191505060405180910390f35b6105e3600480360360208110156105cd57600080fd5b8101908080359060200190929190505050612499565b005b6105ed612787565b6040518082815260200191505060405180910390f35b61062f6004803603602081101561061957600080fd5b810190808035906020019092919050505061278d565b604051808273ffffffffffffffffffffffffffffffffffffffff1673ffffffffffffffffffffffffffffffffffffffff16815260200191505060405180910390f35b60018054600181600116156101000203166002900480601f0160208091040260200160405190810160405280929190818152602001828054600181600116156101000203166002900480156107075780601f106106dc57610100808354040283529160200191610707565b820191906000526020600020905b8154815290600101906020018083116106ea57829003601f168201915b505050505081565b60065481565b600a8060000154908060010154908060020154908060030154905084565b600f60003373ffffffffffffffffffffffffffffffffffffffff1673ffffffffffffffffffffffffffffffffffffffff16815260200190815260200160002060040160019054906101000a900460ff166108db5761078f6127c9565b6040518060c001604052806000815260200160008152602001600081526020016000815260200160001515815260200160011515815250905080600f60003373ffffffffffffffffffffffffffffffffffffffff1673ffffffffffffffffffffffffffffffffffffffff1681526020019081526020016000206000820151816000015560208201518160010155604082015181600201556060820151816003015560808201518160040160006101000a81548160ff02191690831515021790555060a08201518160040160016101000a81548160ff021916908315150217905550905050600e3390806001815401808255809150509060018203906000526020600020016000909192909190916101000a81548173ffffffffffffffffffffffffffffffffffffffff021916908373ffffffffffffffffffffffffffffffffffffffff16021790555050505b565b6000600f60003373ffffffffffffffffffffffffffffffffffffffff1673ffffffffffffffffffffffffffffffffffffffff1681526020019081526020016000206001015490506000811161099a576040517f08c379a000000000000000000000000000000000000000000000000000000000815260040180806020018281038252600c8152602001807f62616c616e63652069732030000000000000000000000000000000000000000081525060200191505060405180910390fd5b81811015610a10576040517f08c379a000000000000000000000000000000000000000000000000000000000815260040180806020018281038252601e8152602001807f796f7520646f206e6f74206861766520656e6f75676820746f6b656e7321000081525060200191505060405180910390fd5b600360009054906101000a900473ffffffffffffffffffffffffffffffffffffffff1673ffffffffffffffffffffffffffffffffffffffff1663a9059cbb33846040518363ffffffff1660e01b8152600401808373ffffffffffffffffffffffffffffffffffffffff1673ffffffffffffffffffffffffffffffffffffffff16815260200182815260200192505050602060405180830381600087803b158015610ab957600080fd5b505af1158015610acd573d6000803e3d6000fd5b505050506040513d6020811015610ae357600080fd5b81019080805190602001909291905050505081600f60003373ffffffffffffffffffffffffffffffffffffffff1673ffffffffffffffffffffffffffffffffffffffff1681526020019081526020016000206001015403600f60003373ffffffffffffffffffffffffffffffffffffffff1673ffffffffffffffffffffffffffffffffffffffff1681526020019081526020016000206001018190555081600a600201600082825403925050819055506000600f60003373ffffffffffffffffffffffffffffffffffffffff1673ffffffffffffffffffffffffffffffffffffffff16815260200190815260200160002060000154148015610c2757506000600f60003373ffffffffffffffffffffffffffffffffffffffff1673ffffffffffffffffffffffffffffffffffffffff16815260200190815260200160002060010154145b8015610c7557506000600f60003373ffffffffffffffffffffffffffffffffffffffff1673ffffffffffffffffffffffffffffffffffffffff16815260200190815260200160002060020154145b15610cd6576000600f60003373ffffffffffffffffffffffffffffffffffffffff1673ffffffffffffffffffffffffffffffffffffffff16815260200190815260200160002060040160006101000a81548160ff0219169083151502179055505b610cde611642565b5050565b6000600f60003373ffffffffffffffffffffffffffffffffffffffff1673ffffffffffffffffffffffffffffffffffffffff16815260200190815260200160002060000154905060008111610d9f576040517f08c379a000000000000000000000000000000000000000000000000000000000815260040180806020018281038252600c8152602001807f62616c616e63652069732030000000000000000000000000000000000000000081525060200191505060405180910390fd5b81811015610e15576040517f08c379a000000000000000000000000000000000000000000000000000000000815260040180806020018281038252601e8152602001807f796f7520646f206e6f74206861766520656e6f75676820746f6b656e7321000081525060200191505060405180910390fd5b600260009054906101000a900473ffffffffffffffffffffffffffffffffffffffff1673ffffffffffffffffffffffffffffffffffffffff1663a9059cbb33846040518363ffffffff1660e01b8152600401808373ffffffffffffffffffffffffffffffffffffffff1673ffffffffffffffffffffffffffffffffffffffff16815260200182815260200192505050602060405180830381600087803b158015610ebe57600080fd5b505af1158015610ed2573d6000803e3d6000fd5b505050506040513d6020811015610ee857600080fd5b81019080805190602001909291905050505081600f60003373ffffffffffffffffffffffffffffffffffffffff1673ffffffffffffffffffffffffffffffffffffffff1681526020019081526020016000206000015403600f60003373ffffffffffffffffffffffffffffffffffffffff1673ffffffffffffffffffffffffffffffffffffffff1681526020019081526020016000206000018190555081600a600101600082825403925050819055506000600f60003373ffffffffffffffffffffffffffffffffffffffff1673ffffffffffffffffffffffffffffffffffffffff1681526020019081526020016000206000015414801561102c57506000600f60003373ffffffffffffffffffffffffffffffffffffffff1673ffffffffffffffffffffffffffffffffffffffff16815260200190815260200160002060010154145b801561107a57506000600f60003373ffffffffffffffffffffffffffffffffffffffff1673ffffffffffffffffffffffffffffffffffffffff16815260200190815260200160002060020154145b156110db576000600f60003373ffffffffffffffffffffffffffffffffffffffff1673ffffffffffffffffffffffffffffffffffffffff16815260200190815260200160002060040160006101000a81548160ff0219169083151502179055505b6110e3611642565b5050565b60075481565b600360009054906101000a900473ffffffffffffffffffffffffffffffffffffffff1681565b60008111611189576040517f08c379a000000000000000000000000000000000000000000000000000000000815260040180806020018281038252601f8152602001807f7175616e74697479206d7573742062652067726561746572207468616e20300081525060200191505060405180910390fd5b611191610733565b600360009054906101000a900473ffffffffffffffffffffffffffffffffffffffff1673ffffffffffffffffffffffffffffffffffffffff166323b872dd3330846040518463ffffffff1660e01b8152600401808473ffffffffffffffffffffffffffffffffffffffff1673ffffffffffffffffffffffffffffffffffffffff1681526020018373ffffffffffffffffffffffffffffffffffffffff1673ffffffffffffffffffffffffffffffffffffffff1681526020018281526020019350505050602060405180830381600087803b15801561126e57600080fd5b505af1158015611282573d6000803e3d6000fd5b505050506040513d602081101561129857600080fd5b81019080805190602001909291905050505080600f60003373ffffffffffffffffffffffffffffffffffffffff1673ffffffffffffffffffffffffffffffffffffffff1681526020019081526020016000206001015401600f60003373ffffffffffffffffffffffffffffffffffffffff1673ffffffffffffffffffffffffffffffffffffffff16815260200190815260200160002060010181905550600f60003373ffffffffffffffffffffffffffffffffffffffff1673ffffffffffffffffffffffffffffffffffffffff16815260200190815260200160002060040160009054906101000a900460ff166113e5576001600f60003373ffffffffffffffffffffffffffffffffffffffff1673ffffffffffffffffffffffffffffffffffffffff16815260200190815260200160002060040160006101000a81548160ff0219169083151502179055505b80600a6002015401600a600201819055506113fe611642565b50565b600f60003373ffffffffffffffffffffffffffffffffffffffff1673ffffffffffffffffffffffffffffffffffffffff168152602001908152602001600020600301548111156114b9576040517f08c379a000000000000000000000000000000000000000000000000000000000815260040180806020018281038252601e8152602001807f796f7520646f206e6f74206861766520656e6f75676820746f6b656e7321000081525060200191505060405180910390fd5b600560009054906101000a900473ffffffffffffffffffffffffffffffffffffffff1673ffffffffffffffffffffffffffffffffffffffff1663a9059cbb33836040518363ffffffff1660e01b8152600401808373ffffffffffffffffffffffffffffffffffffffff1673ffffffffffffffffffffffffffffffffffffffff16815260200182815260200192505050602060405180830381600087803b15801561156257600080fd5b505af1158015611576573d6000803e3d6000fd5b505050506040513d602081101561158c57600080fd5b81019080805190602001909291905050505080600f60003373ffffffffffffffffffffffffffffffffffffffff1673ffffffffffffffffffffffffffffffffffffffff1681526020019081526020016000206003016000828254039250508190555050565b6000809054906101000a900473ffffffffffffffffffffffffffffffffffffffff1681565b60095481565b600260009054906101000a900473ffffffffffffffffffffffffffffffffffffffff1681565b600a60000154431161165357611a27565b60008060008060008090505b600e80549050811015611a1757600f6000600e838154811061167d57fe5b9060005260206000200160009054906101000a900473ffffffffffffffffffffffffffffffffffffffff1673ffffffffffffffffffffffffffffffffffffffff1673ffffffffffffffffffffffffffffffffffffffff16815260200190815260200160002060040160009054906101000a900460ff1615611a0a576000600a6001015411156117a0576064600a6001015402600654600f6000600e858154811061172357fe5b9060005260206000200160009054906101000a900473ffffffffffffffffffffffffffffffffffffffff1673ffffffffffffffffffffffffffffffffffffffff1673ffffffffffffffffffffffffffffffffffffffff1681526020019081526020016000206000015460095402028161179857fe5b0494506117a5565b600094505b6000600a60020154111561184d576064600a6002015402600754600f6000600e85815481106117d057fe5b9060005260206000200160009054906101000a900473ffffffffffffffffffffffffffffffffffffffff1673ffffffffffffffffffffffffffffffffffffffff1673ffffffffffffffffffffffffffffffffffffffff1681526020019081526020016000206001015460095402028161184557fe5b049350611852565b600093505b6000600a6003015411156118fa576064600a6003015402600854600f6000600e858154811061187d57fe5b9060005260206000200160009054906101000a900473ffffffffffffffffffffffffffffffffffffffff1673ffffffffffffffffffffffffffffffffffffffff1673ffffffffffffffffffffffffffffffffffffffff168152602001908152602001600020600201546009540202816118f257fe5b0492506118ff565b600092505b828486010191506000821115611a095781600f6000600e848154811061192157fe5b9060005260206000200160009054906101000a900473ffffffffffffffffffffffffffffffffffffffff1673ffffffffffffffffffffffffffffffffffffffff1673ffffffffffffffffffffffffffffffffffffffff1681526020019081526020016000206003015401600f6000600e848154811061199c57fe5b9060005260206000200160009054906101000a900473ffffffffffffffffffffffffffffffffffffffff1673ffffffffffffffffffffffffffffffffffffffff1673ffffffffffffffffffffffffffffffffffffffff168152602001908152602001600020600301819055505b5b808060010191505061165f565b5043600a60000181905550505050505b565b600f6020528060005260406000206000915090508060000154908060010154908060020154908060030154908060040160009054906101000a900460ff16908060040160019054906101000a900460ff16905086565b6000600f60003373ffffffffffffffffffffffffffffffffffffffff1673ffffffffffffffffffffffffffffffffffffffff16815260200190815260200160002060020154905060008111611b3c576040517f08c379a000000000000000000000000000000000000000000000000000000000815260040180806020018281038252600c8152602001807f62616c616e63652069732030000000000000000000000000000000000000000081525060200191505060405180910390fd5b81811015611bb2576040517f08c379a000000000000000000000000000000000000000000000000000000000815260040180806020018281038252601e8152602001807f796f7520646f206e6f74206861766520656e6f75676820746f6b656e7321000081525060200191505060405180910390fd5b600460009054906101000a900473ffffffffffffffffffffffffffffffffffffffff1673ffffffffffffffffffffffffffffffffffffffff1663a9059cbb33846040518363ffffffff1660e01b8152600401808373ffffffffffffffffffffffffffffffffffffffff1673ffffffffffffffffffffffffffffffffffffffff16815260200182815260200192505050602060405180830381600087803b158015611c5b57600080fd5b505af1158015611c6f573d6000803e3d6000fd5b505050506040513d6020811015611c8557600080fd5b81019080805190602001909291905050505081600f60003373ffffffffffffffffffffffffffffffffffffffff1673ffffffffffffffffffffffffffffffffffffffff1681526020019081526020016000206002015403600f60003373ffffffffffffffffffffffffffffffffffffffff1673ffffffffffffffffffffffffffffffffffffffff1681526020019081526020016000206002018190555081600a600301600082825403925050819055506000600f60003373ffffffffffffffffffffffffffffffffffffffff1673ffffffffffffffffffffffffffffffffffffffff16815260200190815260200160002060000154148015611dc957506000600f60003373ffffffffffffffffffffffffffffffffffffffff1673ffffffffffffffffffffffffffffffffffffffff16815260200190815260200160002060010154145b8015611e1757506000600f60003373ffffffffffffffffffffffffffffffffffffffff1673ffffffffffffffffffffffffffffffffffffffff16815260200190815260200160002060020154145b15611e78576000600f60003373ffffffffffffffffffffffffffffffffffffffff1673ffffffffffffffffffffffffffffffffffffffff16815260200190815260200160002060040160006101000a81548160ff0219169083151502179055505b611e80611642565b5050565b600560009054906101000a900473ffffffffffffffffffffffffffffffffffffffff1681565b60008111611f20576040517f08c379a000000000000000000000000000000000000000000000000000000000815260040180806020018281038252601f8152602001807f7175616e74697479206d7573742062652067726561746572207468616e20300081525060200191505060405180910390fd5b611f28610733565b600260009054906101000a900473ffffffffffffffffffffffffffffffffffffffff1673ffffffffffffffffffffffffffffffffffffffff166323b872dd3330846040518463ffffffff1660e01b8152600401808473ffffffffffffffffffffffffffffffffffffffff1673ffffffffffffffffffffffffffffffffffffffff1681526020018373ffffffffffffffffffffffffffffffffffffffff1673ffffffffffffffffffffffffffffffffffffffff1681526020018281526020019350505050602060405180830381600087803b15801561200557600080fd5b505af1158015612019573d6000803e3d6000fd5b505050506040513d602081101561202f57600080fd5b81019080805190602001909291905050505080600f60003373ffffffffffffffffffffffffffffffffffffffff1673ffffffffffffffffffffffffffffffffffffffff1681526020019081526020016000206000015401600f60003373ffffffffffffffffffffffffffffffffffffffff1673ffffffffffffffffffffffffffffffffffffffff16815260200190815260200160002060000181905550600f60003373ffffffffffffffffffffffffffffffffffffffff1673ffffffffffffffffffffffffffffffffffffffff16815260200190815260200160002060040160009054906101000a900460ff1661217c576001600f60003373ffffffffffffffffffffffffffffffffffffffff1673ffffffffffffffffffffffffffffffffffffffff16815260200190815260200160002060040160006101000a81548160ff0219169083151502179055505b80600a6001015401600a60010181905550612195611642565b50565b600082141561228b57600260009054906101000a900473ffffffffffffffffffffffffffffffffffffffff1673ffffffffffffffffffffffffffffffffffffffff1663a9059cbb33836040518363ffffffff1660e01b8152600401808373ffffffffffffffffffffffffffffffffffffffff1673ffffffffffffffffffffffffffffffffffffffff16815260200182815260200192505050602060405180830381600087803b15801561224a57600080fd5b505af115801561225e573d6000803e3d6000fd5b505050506040513d602081101561227457600080fd5b81019080805190602001909291905050505061246f565b600182141561237e57600360009054906101000a900473ffffffffffffffffffffffffffffffffffffffff1673ffffffffffffffffffffffffffffffffffffffff1663a9059cbb33836040518363ffffffff1660e01b8152600401808373ffffffffffffffffffffffffffffffffffffffff1673ffffffffffffffffffffffffffffffffffffffff16815260200182815260200192505050602060405180830381600087803b15801561233d57600080fd5b505af1158015612351573d6000803e3d6000fd5b505050506040513d602081101561236757600080fd5b81019080805190602001909291905050505061246e565b600282141561246d57600460009054906101000a900473ffffffffffffffffffffffffffffffffffffffff1673ffffffffffffffffffffffffffffffffffffffff1663a9059cbb33836040518363ffffffff1660e01b8152600401808373ffffffffffffffffffffffffffffffffffffffff1673ffffffffffffffffffffffffffffffffffffffff16815260200182815260200192505050602060405180830381600087803b15801561243057600080fd5b505af1158015612444573d6000803e3d6000fd5b505050506040513d602081101561245a57600080fd5b8101908080519060200190929190505050505b5b5b5050565b600460009054906101000a900473ffffffffffffffffffffffffffffffffffffffff1681565b6000811161250f576040517f08c379a000000000000000000000000000000000000000000000000000000000815260040180806020018281038252601f8152602001807f7175616e74697479206d7573742062652067726561746572207468616e20300081525060200191505060405180910390fd5b612517610733565b600460009054906101000a900473ffffffffffffffffffffffffffffffffffffffff1673ffffffffffffffffffffffffffffffffffffffff166323b872dd3330846040518463ffffffff1660e01b8152600401808473ffffffffffffffffffffffffffffffffffffffff1673ffffffffffffffffffffffffffffffffffffffff1681526020018373ffffffffffffffffffffffffffffffffffffffff1673ffffffffffffffffffffffffffffffffffffffff1681526020018281526020019350505050602060405180830381600087803b1580156125f457600080fd5b505af1158015612608573d6000803e3d6000fd5b505050506040513d602081101561261e57600080fd5b81019080805190602001909291905050505080600f60003373ffffffffffffffffffffffffffffffffffffffff1673ffffffffffffffffffffffffffffffffffffffff1681526020019081526020016000206002015401600f60003373ffffffffffffffffffffffffffffffffffffffff1673ffffffffffffffffffffffffffffffffffffffff16815260200190815260200160002060020181905550600f60003373ffffffffffffffffffffffffffffffffffffffff1673ffffffffffffffffffffffffffffffffffffffff16815260200190815260200160002060040160009054906101000a900460ff1661276b576001600f60003373ffffffffffffffffffffffffffffffffffffffff1673ffffffffffffffffffffffffffffffffffffffff16815260200190815260200160002060040160006101000a81548160ff0219169083151502179055505b80600a6003015401600a60030181905550612784611642565b50565b60085481565b600e818154811061279a57fe5b906000526020600020016000915054906101000a900473ffffffffffffffffffffffffffffffffffffffff1681565b6040518060c0016040528060008152602001600081526020016000815260200160008152602001600015158152602001600015158152509056fea265627a7a72315820a62e522d6102c69bf83af0c7684b08f679d43e0b825f5ef64d3307fe94979eb964736f6c63430005100032",
  "source": "pragma solidity ^0.5.0;\r\nimport \"./LP0Token.sol\";\r\nimport \"./LP1Token.sol\";\r\nimport \"./LP2Token.sol\";\r\nimport \"./CropToken.sol\";\r\n\r\ncontract TokenFarm {\r\n    address public owner;\r\n    string public name = \"Token Farm\";\r\n    LP0Token public lp0Token;\r\n    LP1Token public lp1Token;\r\n    LP2Token public lp2Token;\r\n    CropToken public cropToken;\r\n    uint public lp0Share = 50;\r\n    uint public lp1Share = 30;\r\n    uint public lp2Share = 20;\r\n    uint public rewardQuantity = 200000000000000000000;\r\n\r\n    struct Stakeholder {\r\n        uint lp0Count;\r\n        uint lp1Count;\r\n        uint lp2Count;\r\n        uint cropCount;\r\n        bool isStaking;\r\n        bool isOnboarded;\r\n    }\r\n\r\n    struct Pool {\r\n        uint lastBlock;\r\n        uint lp0Total;\r\n        uint lp1Total;\r\n        uint lp2Total;\r\n    }\r\n\r\n    Pool public pool = Pool({\r\n        lastBlock: 0,\r\n        lp0Total: 0,\r\n        lp1Total: 0,\r\n        lp2Total: 0\r\n    });\r\n    address[] public allStakeholders;\r\n    mapping(address => Stakeholder) public stakeholders;\r\n\r\n    constructor(LP0Token _lp0Token, LP1Token _lp1Token, LP2Token _lp2Token, CropToken _cropToken) public {\r\n        lp0Token = _lp0Token;\r\n        lp1Token = _lp1Token;\r\n        lp2Token = _lp2Token;\r\n        cropToken = _cropToken;\r\n        owner = msg.sender;\r\n        pool.lastBlock = block.number;\r\n    }\r\n\r\n    // add stakeholder if not added already\r\n    function addStakeholder() public {\r\n        if (!stakeholders[msg.sender].isOnboarded) {\r\n            Stakeholder memory myStakeholder = Stakeholder({\r\n                lp0Count: 0,\r\n                lp1Count: 0,\r\n                lp2Count: 0,\r\n                cropCount: 0,\r\n                isStaking: false,\r\n                isOnboarded: true\r\n            });\r\n            stakeholders[msg.sender] = myStakeholder;\r\n            allStakeholders.push(msg.sender);\r\n        }\r\n    }\r\n\r\n    // user stakes lp tokens (deposit)\r\n    function stakeLP0(uint _quantity) public {\r\n        require(_quantity > 0, \"quantity must be greater than 0\");\r\n        // add stakeholder if not onboarded yet\r\n        addStakeholder();\r\n        // transfer\r\n        lp0Token.transferFrom(msg.sender, address(this), _quantity);\r\n        // update balance record       \r\n        stakeholders[msg.sender].lp0Count = stakeholders[msg.sender].lp0Count + _quantity;\r\n        // update stakeholding records\r\n        if (!stakeholders[msg.sender].isStaking) {\r\n            stakeholders[msg.sender].isStaking = true;\r\n        }\r\n        // update pool\r\n        pool.lp0Total = pool.lp0Total + _quantity;\r\n        // update rewards\r\n        issueCROP();               \r\n    }\r\n\r\n    function stakeLP1(uint _quantity) public {\r\n        require(_quantity > 0, \"quantity must be greater than 0\");\r\n        // add stakeholder if not onboarded yet\r\n        addStakeholder();\r\n        // transfer\r\n        lp1Token.transferFrom(msg.sender, address(this), _quantity);\r\n        // update balance record       \r\n        stakeholders[msg.sender].lp1Count = stakeholders[msg.sender].lp1Count + _quantity;\r\n        // update stakeholding records\r\n        if (!stakeholders[msg.sender].isStaking) {\r\n            stakeholders[msg.sender].isStaking = true;\r\n        }\r\n        // update pool\r\n        pool.lp1Total = pool.lp1Total + _quantity;\r\n        // update rewards\r\n        issueCROP(); \r\n    }\r\n\r\n    function stakeLP2(uint _quantity) public {\r\n        require(_quantity > 0, \"quantity must be greater than 0\");\r\n        // add stakeholder if not onboarded yet\r\n        addStakeholder();\r\n        // transfer\r\n        lp2Token.transferFrom(msg.sender, address(this), _quantity);\r\n        // update balance record       \r\n        stakeholders[msg.sender].lp2Count = stakeholders[msg.sender].lp2Count + _quantity;\r\n        // update stakeholding records\r\n        if (!stakeholders[msg.sender].isStaking) {\r\n            stakeholders[msg.sender].isStaking = true;\r\n        }\r\n        // update pool\r\n        pool.lp2Total = pool.lp2Total + _quantity;\r\n        // update rewards\r\n        issueCROP(); \r\n    }\r\n\r\n    // user unstakes lp tokens (withdraw)\r\n    function withdrawLP0(uint _quantity) public {\r\n        // check balance\r\n        uint balance = stakeholders[msg.sender].lp0Count;\r\n        require(balance > 0, \"balance is 0\");\r\n        require(balance >= _quantity, \"you do not have enough tokens!\");\r\n        // transfer to stakeholder\r\n        lp0Token.transfer(msg.sender, _quantity);\r\n        // update staking status\r\n        stakeholders[msg.sender].lp0Count = stakeholders[msg.sender].lp0Count - _quantity;\r\n        pool.lp0Total -= _quantity;\r\n        if (stakeholders[msg.sender].lp0Count == 0 && stakeholders[msg.sender].lp1Count == 0 && stakeholders[msg.sender].lp2Count == 0) {\r\n            stakeholders[msg.sender].isStaking = false;\r\n        }\r\n        // update rewards\r\n        issueCROP(); \r\n    }\r\n\r\n    function withdrawLP1(uint _quantity) public {\r\n        // check balance\r\n        uint balance = stakeholders[msg.sender].lp1Count;\r\n        require(balance > 0, \"balance is 0\");\r\n        require(balance >= _quantity, \"you do not have enough tokens!\");\r\n        // transfer to stakeholder\r\n        lp1Token.transfer(msg.sender, _quantity);\r\n        // update staking status\r\n        stakeholders[msg.sender].lp1Count = stakeholders[msg.sender].lp1Count - _quantity;\r\n        pool.lp1Total -= _quantity;\r\n        if (stakeholders[msg.sender].lp0Count == 0 && stakeholders[msg.sender].lp1Count == 0 && stakeholders[msg.sender].lp2Count == 0) {\r\n            stakeholders[msg.sender].isStaking = false;\r\n        }\r\n        // update rewards\r\n        issueCROP(); \r\n    }\r\n\r\n    function withdrawLP2(uint _quantity) public {\r\n        // check balance\r\n        uint balance = stakeholders[msg.sender].lp2Count;\r\n        require(balance > 0, \"balance is 0\");\r\n        require(balance >= _quantity, \"you do not have enough tokens!\");\r\n        // transfer to stakeholder\r\n        lp2Token.transfer(msg.sender, _quantity);\r\n        // update staking status\r\n        stakeholders[msg.sender].lp2Count = stakeholders[msg.sender].lp2Count - _quantity;\r\n        pool.lp2Total -= _quantity;\r\n        if (stakeholders[msg.sender].lp0Count == 0 && stakeholders[msg.sender].lp1Count == 0 && stakeholders[msg.sender].lp2Count == 0) {\r\n            stakeholders[msg.sender].isStaking = false;\r\n        }\r\n        // update rewards\r\n        issueCROP(); \r\n    }\r\n\r\n    // owner issues stakeholders with reward crop tokens (interest)\r\n    function issueCROP() public {\r\n        //require(msg.sender == owner, \"only contract owner can issue crop rewards!\");\r\n        if (block.number <= pool.lastBlock) {\r\n            return;\r\n        }\r\n        uint lp0Interest;\r\n        uint lp1Interest;\r\n        uint lp2Interest;\r\n        uint totalInterest;\r\n\r\n        // loop through list of stakeholders and pay everyone their interest if they are staking\r\n        for (uint i=0; i<allStakeholders.length; i++) {\r\n            if (stakeholders[allStakeholders[i]].isStaking) {\r\n                // calculate interest - can set any interest function here\r\n                if (pool.lp0Total > 0) {\r\n                    lp0Interest = (rewardQuantity * stakeholders[allStakeholders[i]].lp0Count * lp0Share) / (pool.lp0Total * 100);\r\n                } else {\r\n                    lp0Interest = 0;\r\n                }\r\n                if (pool.lp1Total > 0) {\r\n                    lp1Interest = (rewardQuantity * stakeholders[allStakeholders[i]].lp1Count * lp1Share) / (pool.lp1Total * 100);\r\n                } else {\r\n                    lp1Interest = 0;\r\n                }\r\n                if (pool.lp2Total > 0) {\r\n                    lp2Interest = (rewardQuantity * stakeholders[allStakeholders[i]].lp2Count * lp2Share) / (pool.lp2Total * 100);\r\n                } else {\r\n                    lp2Interest = 0;\r\n                }\r\n                totalInterest = lp0Interest + lp1Interest + lp2Interest;\r\n                // allocate interest and update records\r\n                if (totalInterest > 0) {\r\n                    stakeholders[allStakeholders[i]].cropCount = stakeholders[allStakeholders[i]].cropCount + totalInterest;\r\n                }\r\n            }\r\n        }\r\n        pool.lastBlock = block.number;\r\n    }\r\n\r\n    // harvest crops\r\n    function harvestCROP(uint _quantity) public {\r\n        require(_quantity <= stakeholders[msg.sender].cropCount, \"you do not have enough tokens!\");\r\n        cropToken.transfer(msg.sender, _quantity);\r\n        stakeholders[msg.sender].cropCount -= _quantity;\r\n    }\r\n\r\n    // buy LP tokens - in reality, this should be a payable function with actual liquidity cost\r\n    function buyLP(uint _id, uint _quantity) public {\r\n        if (_id == 0) {\r\n            lp0Token.transfer(msg.sender, _quantity);\r\n        } else if (_id == 1) {\r\n            lp1Token.transfer(msg.sender, _quantity);\r\n        } else if (_id == 2) {\r\n            lp2Token.transfer(msg.sender, _quantity);\r\n        }\r\n    }\r\n\r\n    // add some modifiers\r\n\r\n}",
  "sourcePath": "C:/Users/arvin/Documents/1Personal/Education/Code Workspace/tokenfarm/src/contracts/TokenFarm.sol",
  "compiler": {
    "name": "solc",
    "version": "0.5.16+commit.9c3226ce.Emscripten.clang"
  },
  "schemaVersion": "3.2.3",
  "updatedAt": "2023-01-12T17:43:08.128Z",
  "networkType": "ethereum",
  "devdoc": {
    "methods": {}
  },
  "userdoc": {
    "methods": {}
  }
}